:100000000C9434000C9446000C9455000C9446005B
:100010000C9446000C9446000C9446000C94460048
:100020000C9446000C9446000C9446000C94460038
:100030000C9446000C9446000C9446000C94460028
:100040000C9446000C9446000C9446000C94460018
:100050000C9446000C9446000C9446000C94460008
:100060000C9446000C94460011241FBECFEFD8E03C
:10007000DEBFCDBF21E0A0E0B1E001C01D92A23003
:10008000B207E1F70E9448000C9480000C94000035
:1000900084B1806284B9E9E6F0E080818C6080837D
:1000A0008DB382608DBB7894FFCF1F920F920FB6F5
:1000B0000F9211242F933F938F939F938091000170
:1000C00090910101892B21F085B1806285B903C02F
:1000D00085B18F7D85B9209100013091010181E0CA
:1000E00090E0821B930B90930101809300019F91FC
:1000F0008F913F912F910F900FBE0F901F901895E9
:04010000F894FFCFA1
:00000001FF
